{
  "contractName": "TimeCapsule",
  "abi": [
    {
      "constant": false,
      "inputs": [
        {
          "internalType": "address payable",
          "name": "_recipient",
          "type": "address"
        },
        {
          "internalType": "uint256",
          "name": "_openingDate",
          "type": "uint256"
        }
      ],
      "name": "createCapsule",
      "outputs": [],
      "payable": true,
      "stateMutability": "payable",
      "type": "function"
    },
    {
      "constant": true,
      "inputs": [
        {
          "internalType": "address",
          "name": "_recipientAddress",
          "type": "address"
        }
      ],
      "name": "getCapsuleAt",
      "outputs": [
        {
          "internalType": "address",
          "name": "_sender",
          "type": "address"
        },
        {
          "internalType": "address payable",
          "name": "_recipient",
          "type": "address"
        },
        {
          "internalType": "uint256",
          "name": "_amount",
          "type": "uint256"
        },
        {
          "internalType": "uint256",
          "name": "_openingDate",
          "type": "uint256"
        }
      ],
      "payable": false,
      "stateMutability": "view",
      "type": "function"
    },
    {
      "constant": true,
      "inputs": [
        {
          "internalType": "address",
          "name": "_recipientAddress",
          "type": "address"
        }
      ],
      "name": "canBeOpened",
      "outputs": [
        {
          "internalType": "uint256",
          "name": "openingDate",
          "type": "uint256"
        },
        {
          "internalType": "uint256",
          "name": "timeStamp",
          "type": "uint256"
        }
      ],
      "payable": false,
      "stateMutability": "view",
      "type": "function"
    },
    {
      "constant": false,
      "inputs": [],
      "name": "openCapsule",
      "outputs": [],
      "payable": false,
      "stateMutability": "nonpayable",
      "type": "function"
    }
  ],
  "bytecode": "0x608060405234801561001057600080fd5b50610789806100206000396000f3fe60806040526004361061003f5760003560e01c80630811f73614610044578063712ef5b1146100b0578063c514cc1e146100c7578063cba110aa14610115575b600080fd5b34801561005057600080fd5b506100936004803603602081101561006757600080fd5b81019080803573ffffffffffffffffffffffffffffffffffffffff1690602001909291905050506101e7565b604051808381526020018281526020019250505060405180910390f35b3480156100bc57600080fd5b506100c5610236565b005b610113600480360360408110156100dd57600080fd5b81019080803573ffffffffffffffffffffffffffffffffffffffff16906020019092919080359060200190929190505050610423565b005b34801561012157600080fd5b506101646004803603602081101561013857600080fd5b81019080803573ffffffffffffffffffffffffffffffffffffffff1690602001909291905050506105df565b604051808573ffffffffffffffffffffffffffffffffffffffff1673ffffffffffffffffffffffffffffffffffffffff1681526020018473ffffffffffffffffffffffffffffffffffffffff1673ffffffffffffffffffffffffffffffffffffffff16815260200183815260200182815260200194505050505060405180910390f35b6000806000808473ffffffffffffffffffffffffffffffffffffffff1673ffffffffffffffffffffffffffffffffffffffff168152602001908152602001600020600301544291509150915091565b600f6103e84202016000803373ffffffffffffffffffffffffffffffffffffffff1673ffffffffffffffffffffffffffffffffffffffff1681526020019081526020016000206003015411156102f4576040517f08c379a000000000000000000000000000000000000000000000000000000000815260040180806020018281038252601b8152602001807f63617073756c652063616e2774206265206f70656e656420796574000000000081525060200191505060405180910390fd5b60008060003373ffffffffffffffffffffffffffffffffffffffff1673ffffffffffffffffffffffffffffffffffffffff1681526020019081526020016000206002015490506000803373ffffffffffffffffffffffffffffffffffffffff1673ffffffffffffffffffffffffffffffffffffffff168152602001908152602001600020600080820160006101000a81549073ffffffffffffffffffffffffffffffffffffffff02191690556001820160006101000a81549073ffffffffffffffffffffffffffffffffffffffff02191690556002820160009055600382016000905550503373ffffffffffffffffffffffffffffffffffffffff166108fc829081150290604051600060405180830381858888f1935050505015801561041f573d6000803e3d6000fd5b5050565b6000341180156104395750601e6103e842020381115b6104ab576040517f08c379a00000000000000000000000000000000000000000000000000000000081526004018080602001828103825260188152602001807f726571756972656d656e747320617265206e6f74206d6574000000000000000081525060200191505060405180910390fd5b60405180608001604052803373ffffffffffffffffffffffffffffffffffffffff1681526020018373ffffffffffffffffffffffffffffffffffffffff168152602001348152602001828152506000808473ffffffffffffffffffffffffffffffffffffffff1673ffffffffffffffffffffffffffffffffffffffff16815260200190815260200160002060008201518160000160006101000a81548173ffffffffffffffffffffffffffffffffffffffff021916908373ffffffffffffffffffffffffffffffffffffffff16021790555060208201518160010160006101000a81548173ffffffffffffffffffffffffffffffffffffffff021916908373ffffffffffffffffffffffffffffffffffffffff16021790555060408201518160020155606082015181600301559050505050565b60008060008060008060008773ffffffffffffffffffffffffffffffffffffffff1673ffffffffffffffffffffffffffffffffffffffff16815260200190815260200160002060000160009054906101000a900473ffffffffffffffffffffffffffffffffffffffff16905060008060008873ffffffffffffffffffffffffffffffffffffffff1673ffffffffffffffffffffffffffffffffffffffff16815260200190815260200160002060010160009054906101000a900473ffffffffffffffffffffffffffffffffffffffff16905060008060008973ffffffffffffffffffffffffffffffffffffffff1673ffffffffffffffffffffffffffffffffffffffff16815260200190815260200160002060020154905060008060008a73ffffffffffffffffffffffffffffffffffffffff1673ffffffffffffffffffffffffffffffffffffffff16815260200190815260200160002060030154905083838383975097509750975050505050919350919356fea265627a7a72315820020170c801ea62875fef12810f6bb4ce8b83cb0ca972b61cfae8ab61e0d021cd64736f6c63430005100032",
  "source": "pragma solidity ^0.5.0;\n\ncontract TimeCapsule {\n  struct Capsule {\n    address sender;\n    address payable recipient;\n    uint256 amount;\n    uint256 openingDate;\n  }\n\n  mapping(address => Capsule) capsules;\n\n  function createCapsule(address payable _recipient, uint256 _openingDate)\n    public\n    payable\n  {\n    require(\n      msg.value > 0 && _openingDate > block.timestamp * 1000 - 30,\n      'requirements are not met'\n    );\n\n    capsules[_recipient] = Capsule({\n      sender: msg.sender,\n      recipient: _recipient,\n      amount: msg.value,\n      openingDate: _openingDate\n    });\n  }\n\n  function getCapsuleAt(address _recipientAddress)\n    public\n    view\n    returns (\n      address _sender,\n      address payable _recipient,\n      uint256 _amount,\n      uint256 _openingDate\n    )\n  {\n    address _sender = capsules[_recipientAddress].sender;\n    address payable _recipient = capsules[_recipientAddress].recipient;\n    uint256 _amount = capsules[_recipientAddress].amount;\n    uint256 _openingDate = capsules[_recipientAddress].openingDate;\n    return (_sender, _recipient, _amount, _openingDate);\n  }\n\n  function canBeOpened(address _recipientAddress)\n    public\n    view\n    returns (uint256 openingDate, uint256 timeStamp)\n  {\n    return (capsules[_recipientAddress].openingDate, block.timestamp);\n  }\n\n  function openCapsule() public {\n    require(\n      capsules[msg.sender].openingDate <= block.timestamp * 1000 + 15,\n      \"capsule can't be opened yet\"\n    );\n    uint256 amount = capsules[msg.sender].amount;\n    delete capsules[msg.sender];\n    msg.sender.transfer(amount);\n  }\n}\n",
  "sourcePath": "/Users/nico/Projects/timecapsule-react/src/truffle/contracts/TimeCapsule.sol",
  "compiler": {
    "name": "solc",
    "version": "0.5.16+commit.9c3226ce.Emscripten.clang"
  },
  "schemaVersion": "3.4.3",
  "updatedAt": "2021-10-20T13:17:40.993Z",
  "networkType": "ethereum",
  "devdoc": {
    "methods": {}
  },
  "userdoc": {
    "methods": {}
  }
}